:100000000EC01BC01AC019C018C017C016C03FC010
:1000100014C013C012C011C025C00FC00EC01124DF
:100020001FBECFEDCDBF10E0A0E6B0E001C01D9235
:10003000A037B107E1F714D14AC1E2CF14BE84E082
:1000400087BB89E184BB8EE080BD13B884E893E070
:1000500090936E0080936D001092650085E0809310
:100060006F0008951F920F920FB60F9211248F9375
:1000700085B78F7D85BF81E08093610081B5806405
:1000800081BD8F910F900FBE0F901F9018951F92FA
:100090000F920FB60F9211248F9380E988B981E0F7
:1000A000809360008F910F900FBE0F901F90189556
:1000B00082EB87B981E886B980E988B986E087BB99
:1000C00088B3826188BB84E087BB0895369A81E05B
:1000D00080936800349BFECF349A85B1883C28F425
:1000E00010926800C498BC9AC498089583EB87B9AD
:1000F00081EC86B9349BFECF349A95B190936B0016
:10010000913F20F010926A00109265009C3D18F417
:1001100081E080936A00109263009E3B78F421E0B6
:10012000209363009F3A50F480916F008150809338
:100130006F00882331F420936500089585E0809353
:100140006F00089580916800882351F080916A00C3
:10015000882321F4C498BC9AC4980895BC98C49A82
:100160000895B19B03C0109269000BC08091690093
:10017000882321F4109267001092660081E080933A
:100180006900C198B99AC198B998089510926C0005
:10019000809169008823F1F080916800882341F004
:1001A00081E080936C00109267001092660012C08C
:1001B00080916500882371F48091660090916700BA
:1001C0008850974038F481E080936C0083E088B9D0
:1001D0008BE088B980916C00882311F0C29A089551
:1001E000C29808951092640080916C008823E1F019
:1001F00081E08093640020916600309167008091D7
:10020000630090E08223932380FF02C01092640079
:1002100080916D0090916E008217930770F420FF1B
:100220000CC010926400089580916A00909168005B
:10023000892319F081E0809364000895C19AC198E0
:1002400080916400882359F4F894379885B7877EA5
:10025000806185BF85B7806285BF78948895089551
:10026000F89414BE81B5886181BD11BCE7DE81B50B
:10027000806181BD11BC8DE481BD789420916600C0
:100280003091670080916000882321F01092600017
:1002900020E030E0809161008823A1F32093660084
:1002A000309367001092610087E02830380730F4FF
:1002B0002F5F3F4F3093670020936600F9DE06DF23
:1002C00050DF14DF3FDF62DF8DDFB8DFD7CFF89478
:0202D000FFCF5E
:00000001FF
